:1000000058C0BBC16FC06EC06DC06CC06BC068C350
:1000100069C068C067C066C065C064C063C062C0B4
:1000200061C060C05FC00403090412034B005300A9
:100030007A0063007A0075006B00610010034900CC
:1000400052004D006F007500730065001201010140
:1000500000000008424231E12000010200010902D3
:1000600022000101008032090400000103010200A6
:100070000921010100012232000705810308001453
:1000800005010902A1010901A100050919012903BE
:100090001500250195037501810295017505810300
:1000A0000501093009311581257F75089502810602
:1000B000C0C011241FBECFEDCDBF10E0A0E6B0E060
:1000C000E4EEF7E002C005900D92A436B107D9F72F
:1000D00010E0A4E6B0E001C01D92A23AB107E1F73A
:1000E00040D37FC38DCF84E690E0809398000B9639
:1000F00080938C0085B7836085BF8BB780648BBF8E
:1001000008951F93DC01162F90919D0090FF02C06F
:1001100023EC01C02BE48091620084FF04C09F5F48
:1001200090939D0003C08AE58093620020938D0028
:10013000912FEEE8F0E002C08D9181939150E0F7AD
:10014000612F8EE890E0C8D21C5F109362001F916F
:1001500008950F931F93CF93DF9380919E00882380
:1001600009F4A6C0982F935097FDA0C080918C00F1
:10017000282F2F5FE90180919A008D3209F090C0FD
:10018000983009F08DC08881807609F07AC02AE81D
:1001900030E010928A008981882341F410928B000C
:1001A00030939C0020939B0092E06EC0853021F438
:1001B0008A8180939F0063C0863009F045C08B819F
:1001C000813019F48CE490E01BC0823041F48EE55C
:1001D00090E090939C0080939B0092E258C0833003
:1001E000F9F48A81882341F486E290E090939C00A0
:1001F00080939B0094E04BC0813041F48AE290E010
:1002000090939C0080939B0092E141C08230F1F575
:100210008CE390E090939C0080939B0090E137C02A
:10022000813241F480E790E090939C0080939B00A2
:1002300099E02DC0823251F580E890E090939C00C7
:1002400080939B0092E323C0883039F481EA90E0E8
:1002500090939C0080939B000CC0893021F48A818C
:100260008093A1000CC08A3031F430939C0020931D
:100270009B0091E009C08B3011F410929D0090E03A
:1002800003C0CE015AD2982F20E802C090E020ECA3
:100290008F81882339F48E81891720F4982F02C02A
:1002A00090E020E820937A009093600010929E00E6
:1002B000909160009F3F09F444C08091610084FFE9
:1002C00040C0192F993008F018E0911B90936000FE
:1002D00080917A0080FF02C003EC01C00BE48F5FC5
:1002E00080937A0020919B0030919C0086FD05C090
:1002F000912FF901A2E8B0E00DC0912FF901A2E819
:10030000B0E003C084918D9331969150D8F704C02A
:1003100081918D939150E0F7C901810F911D9093C8
:100320009C0080939B00612F82E890E0D5D118302B
:1003300019F08FEF80936000009381001C5F109391
:10034000610080B38C7019F010927B0011C0809115
:100350007B00882369F494E680B38C7049F4915053
:10036000D9F781E080937B0010929F001092990052
:10037000DF91CF911F910F9108950F930FB70F93B6
:10038000839BFECF839B06C0839B04C0839B02C0DC
:10039000000000C01F933F932F9331E014E000B39F
:1003A000102713FD32E0102F3A95C9F703FDE5C081
:1003B00000B3102720E013FB20F9DF9310B30127CF
:1003C00003FB21F9CF93C091980000B3102713FBD2
:1003D00022F93BE0D0E04F9310B3012703FB23F950
:1003E0004FEF000055C0839BFECF839B06C0839BCD
:1003F00004C0839B02C0000000C0DF9100C0CDCFCD
:1004000010B31C7079F14F7D206213C000B30C70E3
:1004100049F14F7B206415C00C7021F1102F20682A
:1004200000B319C000B30C70E9F04E7F216018C012
:1004300039F300B30C70B1F0102713FB26F922300A
:1004400028F310B3012703FB27F9422749934FEF05
:1004500000B3243008F3102713FB20F9297F11F390
:1004600010B31C70E1F1012703FB21F9237FF1F0A8
:1004700000B30C70A1F1102713FB22F9277EE1F0E5
:1004800010B3012703FB23F93A9541F12F7CD1F0FA
:1004900000B30C7021F1102713FB24F92F79C1F060
:1004A00010B3012703FB25F92F73C2CF10B31C70C3
:1004B000B1F04D7F2260DCCF00B30C7081F04B7F38
:1004C0002460DECF10B31C7051F0477F2860E0CF6E
:1004D00000B30C7021F04F7E2061E2CF3DC03C2F75
:1004E000C09198003C1B00E433300ABFA8F108819A
:1004F0001981412F1F77209199000D3289F1013E1A
:1005000079F10936C1F00777033431F51091A00075
:10051000112311F100919E000030D1F53430D2F159
:1005200030939E0010939A0000918C00C0938C0031
:10053000009398002FC0121779F447FD37C030910F
:10054000610034FD23C00AE500936100C1E8D0E0FA
:1005500025C000270093A0004F91CF91DF910DC0DF
:100560001217B9F70093A0000AE5009361004F91BC
:10057000CF910AB706FD37CFDF9100E40ABF2F9174
:100580003F911F910F910FBF0F911895432F03C0FB
:100590004AE501C042EDC4E1D0E032E05F935CE0A7
:1005A000939A02B38B9A8A9A20E819C00AE530918F
:1005B000620034FDEBCF00936200CDE8D0E0EECFD7
:1005C000052710E002BB10C0052710E0089402BB0D
:1005D00013C0052710E015C0052710E019C020FF43
:1005E000052702BB279517951C3F50F720FF0527CD
:1005F000279502BB17951C3F38F720FF0527279545
:10060000179502BB1C3F28F720FF05272795179554
:100610001C3F02BB08F700C0499120FF052702BB21
:10062000279517951C3F80F520FF0527279502BBCE
:1006300017951C3F68F520FF05272795179502BBE6
:100640001C3F58F520FF0527279517951C3F02BB37
:1006500038F5242F3A9519F6037F5F9102BB32E0FB
:100660003A95F1F710919F00C651D04011F01093C8
:100670009900086011B3137F02BB037F4F91CF91A4
:1006800011BB02BBDF9179CF052710E002BBCACFB7
:10069000052710E0089402BBCDCF052710E0CFCF8F
:1006A000052710E0D3CFA82FB92F8FEF9FEF41E0A0
:1006B00050EA615070F02D9138E0722F78279695AE
:1006C0008795269570FF02C0842795273A95A9F74C
:1006D000F0CF809590950895E6DF8D939D930895D2
:1006E0001F920F920FB60F9211246F937F938F93E7
:1006F0009F93EF93FF9380917D009CB1E82FFF279C
:10070000E258FF4F90838F5F80937D0063E05DD060
:10071000992341F480917C00816080937C00109249
:100720007D005798FF91EF919F918F917F916F91ED
:100730000F900FBE0F901F901895FC018EE790E070
:1007400090939C0080939B0080818076803231F46E
:100750008181813019F483E090E0089580E090E099
:100760000895CFEDD0E0DEBFCDBF88E190E02FE06F
:100770000FB6F894A89581BD0FBE21BD83EE82BB54
:100780008CE181BB80E181BB12B882E189B980E94B
:100790008AB986E083B9A7DC8C9A949A7894CEE7DC
:1007A000D0E0A895D6DC80917C0080FFFACF8091C4
:1007B000620084FF03C063E0CE01A3DC80917C0073
:1007C0008E7F80937C00579AECCF991B79E004C010
:1007D000991F961708F0961B881F7A95C9F7809580
:0407E0000895FFCFAA
:0407E400FF5A5A005E
:00000001FF
