:1000000012C02AC029C029C071C026C0B5C024C0F2
:1000100023C022C021C020C01FC01EC01DC01CC0E4
:100020001BC01AC019C011241FBECFEDCDBF10E0F8
:10003000A0E6B0E0E8E0F5E002C005900D92A03641
:10004000B107D9F710E0A0E6B0E001C01D92AF3CC7
:10005000B107E1F7F0D057C2D3CF1F920F920FB67E
:100060000F9211242F933F934F935F938F939F93FE
:10007000EF93FF9344B555B58EB590E489278EBDB7
:10008000C19ACA0140962091680030916900821B94
:10009000930B25E0969587952A95E1F7982F509335
:1000A0006900409368004455524F5BBD4ABD809142
:1000B00060008A7071F410926A008091CC008823ED
:1000C00029F0E82FFF27E659FF4F91838F5F809338
:1000D000CC00FF91EF919F918F915F914F913F9154
:1000E0002F910F900FBE0F901F9018951F920F9297
:1000F0000FB60F9211248F939F9389B7877B89BF87
:10010000C1989091CC00983288F0809160008A70FC
:1001100069F480916B008F5F80936B009150909396
:100120006A00809160008160809360001092CC0032
:1001300080916000877F809360008EB58F7B8EBD3D
:100140008CE382BF89B7826089BF89B7886489BF21
:100150009F918F910F900FBE0F901F90189590E078
:100160005D9BFECFE92FFF27EB59FF4F80818CB9B4
:100170009F5F9330A8F308951F920F920FB60F92CE
:1001800011242F933F934F935F936F937F938F939C
:100190009F93AF93BF93EF93FF938091CC008823FD
:1001A000A1F580916B00882331F1809161009091DD
:1001B0006200A0916300B091640086392FE9920734
:1001C0002FEFA2072FEFB20729F0865C9F4CAF4FAD
:1001D000BF4F89F41092650010926600109267007C
:1001E00080916000846080936000B9DF809160003E
:1001F0008B7F8093600010926B00109261001092D0
:10020000620010926300109264008CE382BF89B791
:100210008D7F89BFFF91EF91BF91AF919F918F919A
:100220007F916F915F914F913F912F910F900FBEF2
:100230000F901F901895CFEDD0E0DEBFCDBF82E2CA
:1002400090E09093CE008093CD0088E190E02EE086
:100250000FB6F894A89581BD0FBE21BDC39ABB9877
:1002600087B3876087BB82E88EBD89B7886489BF02
:1002700012B88CE089B988E08AB986E083B983B77F
:10028000856083BF7894C09AC198C29840916100FC
:10029000509162006091630070916400C0906A00A8
:1002A000A0906B00B090CC00A8958091600080FF7A
:1002B000FBCF3EEFD32EDC0C8091600082608093F8
:1002C0006000B39902C0AA20F1F5EE24FF24870153
:1002D00020E030E0BB2029F08091600088608093AE
:1002E0006000ED2DFF27E659FF4F8281833298F0A1
:1002F00081E090E0022E02C0880F991F0A94E2F775
:1003000080959095AA2797FDA095BA2FE822F9220B
:100310000A231B2310C081E090E0022E02C0880F48
:10032000991F0A94E2F7AA2797FDA095BA2FE82A09
:10033000F92A0A2B1B2B2F5F3F4F2831310529F05B
:100340008EEFD80EC7CF7A018B01809160008D7F30
:100350008093600086E0E8168FE0F8068FEF0807CC
:100360008FEF180709F4ADC087E0E8168FE0F806B4
:100370008FEF08078FEF1807E8F58FEFE81684E096
:10038000F8068EEA080780EB180709F472C080E0CF
:10039000E81685E0F8068EEA080780EB1807A8F44F
:1003A00086E3E8168FE3F80680E0080780E0180788
:1003B00009F47DC08FEFE8168DE5F80686E20807A0
:1003C00080EB180709F085C05DC08FEFE8168CE15F
:1003D000F8068AED080780EB180709F457C08FEF7D
:1003E000E81689E8F8068EEF080780EB180709F091
:1003F00070C03BC086EBE8168FEBF8068FEF08075E
:100400008FEF180709F44FC087EBE8168FEBF8065B
:100410008FEF08078FEF1807A8F486E9E8168FE931
:10042000F8068FEF08078FEF180709F446C086EA31
:10043000E8168FEAF8068FEF08078FEF180709F024
:1004400048C02EC086ECE8168FECF8068FEF080740
:100450008FEF1807A1F186EFE8168FEFF8068FEF00
:1004600008078FEF1807A9F515C081E08093650094
:1004700013C081E0809365001092660084E0809351
:10048000670030C081E0809365000FC081E08093F9
:1004900065000FC010926500109266008CEFEFCFE0
:1004A00010926500E9CF109265008CEF03C01092A6
:1004B000650084E08093660009C081E003C082E0AB
:1004C00001C083E08093650010926600109267007F
:1004D00009C01092650010926600109267007A01C0
:1004E0008B0109C0C29A8091600084608093600093
:1004F00036DEC298CC24809160008A7F80936000B1
:08050000B801A701D1CEFFCF25
:00000001FF
